{
  "_format": "hh-sol-artifact-1",
  "contractName": "SLABillingSepolia",
  "sourceName": "contracts/SLABillingSepolia.sol",
  "abi": [
    {
      "anonymous": false,
      "inputs": [
        {
          "indexed": true,
          "internalType": "address",
          "name": "from",
          "type": "address"
        },
        {
          "indexed": true,
          "internalType": "address",
          "name": "to",
          "type": "address"
        },
        {
          "indexed": false,
          "internalType": "uint256",
          "name": "amount",
          "type": "uint256"
        }
      ],
      "name": "FundsTransferred",
      "type": "event"
    },
    {
      "inputs": [],
      "name": "breachCount",
      "outputs": [
        {
          "internalType": "uint256",
          "name": "",
          "type": "uint256"
        }
      ],
      "stateMutability": "view",
      "type": "function"
    },
    {
      "inputs": [
        {
          "internalType": "address",
          "name": "userAddress",
          "type": "address"
        }
      ],
      "name": "calculateFinalBill",
      "outputs": [],
      "stateMutability": "nonpayable",
      "type": "function"
    },
    {
      "inputs": [
        {
          "internalType": "address",
          "name": "",
          "type": "address"
        }
      ],
      "name": "finalBills",
      "outputs": [
        {
          "internalType": "uint256",
          "name": "",
          "type": "uint256"
        }
      ],
      "stateMutability": "view",
      "type": "function"
    },
    {
      "inputs": [
        {
          "internalType": "address",
          "name": "userAddress",
          "type": "address"
        }
      ],
      "name": "getBillDetails",
      "outputs": [
        {
          "internalType": "uint256",
          "name": "penaltyAmount",
          "type": "uint256"
        },
        {
          "internalType": "uint256",
          "name": "finalBill",
          "type": "uint256"
        }
      ],
      "stateMutability": "view",
      "type": "function"
    },
    {
      "inputs": [
        {
          "internalType": "address",
          "name": "",
          "type": "address"
        }
      ],
      "name": "penaltyAmounts",
      "outputs": [
        {
          "internalType": "uint256",
          "name": "",
          "type": "uint256"
        }
      ],
      "stateMutability": "view",
      "type": "function"
    },
    {
      "inputs": [],
      "name": "penaltyRate",
      "outputs": [
        {
          "internalType": "uint256",
          "name": "",
          "type": "uint256"
        }
      ],
      "stateMutability": "view",
      "type": "function"
    },
    {
      "inputs": [],
      "name": "penaltyScore",
      "outputs": [
        {
          "internalType": "uint256",
          "name": "",
          "type": "uint256"
        }
      ],
      "stateMutability": "view",
      "type": "function"
    },
    {
      "inputs": [
        {
          "internalType": "address",
          "name": "userAddress",
          "type": "address"
        }
      ],
      "name": "recordPenaltyAmount",
      "outputs": [],
      "stateMutability": "nonpayable",
      "type": "function"
    },
    {
      "inputs": [],
      "name": "serviceCost",
      "outputs": [
        {
          "internalType": "uint256",
          "name": "",
          "type": "uint256"
        }
      ],
      "stateMutability": "view",
      "type": "function"
    },
    {
      "inputs": [
        {
          "internalType": "address payable",
          "name": "recipient",
          "type": "address"
        },
        {
          "internalType": "uint256",
          "name": "amount",
          "type": "uint256"
        }
      ],
      "name": "transferFunds",
      "outputs": [],
      "stateMutability": "payable",
      "type": "function"
    }
  ],
  "bytecode": "0x608060405234801561001057600080fd5b5061088a806100206000396000f3fe6080604052600436106100915760003560e01c8063990dc9db11610059578063990dc9db1461018f578063bfc46306146101ab578063c14eb992146101d6578063d15c2745146101ff578063d6b7494f1461023d57610091565b80631388f139146100965780631c47b5c6146100d357806325e2e5de146100fe578063269ddd9a1461012757806350206d5c14610152575b600080fd5b3480156100a257600080fd5b506100bd60048036038101906100b891906105fe565b610268565b6040516100ca9190610644565b60405180910390f35b3480156100df57600080fd5b506100e8610280565b6040516100f59190610644565b60405180910390f35b34801561010a57600080fd5b50610125600480360381019061012091906105fe565b61028c565b005b34801561013357600080fd5b5061013c61032a565b6040516101499190610644565b60405180910390f35b34801561015e57600080fd5b50610179600480360381019061017491906105fe565b61032f565b6040516101869190610644565b60405180910390f35b6101a960048036038101906101a491906106c9565b610347565b005b3480156101b757600080fd5b506101c0610495565b6040516101cd9190610644565b60405180910390f35b3480156101e257600080fd5b506101fd60048036038101906101f891906105fe565b61049a565b005b34801561020b57600080fd5b50610226600480360381019061022191906105fe565b610505565b604051610234929190610709565b60405180910390f35b34801561024957600080fd5b50610252610590565b60405161025f9190610644565b60405180910390f35b60006020528060005260406000206000915090505481565b670de0b6b3a764000081565b60008060008373ffffffffffffffffffffffffffffffffffffffff1673ffffffffffffffffffffffffffffffffffffffff16815260200190815260200160002054670de0b6b3a76400006102e09190610761565b905080600160008473ffffffffffffffffffffffffffffffffffffffff1673ffffffffffffffffffffffffffffffffffffffff168152602001908152602001600020819055505050565b600381565b60016020528060005260406000206000915090505481565b8034101561038a576040517f08c379a0000000000000000000000000000000000000000000000000000000008152600401610381906107f2565b60405180910390fd5b8173ffffffffffffffffffffffffffffffffffffffff166108fc829081150290604051600060405180830381858888f193505050501580156103d0573d6000803e3d6000fd5b508173ffffffffffffffffffffffffffffffffffffffff163373ffffffffffffffffffffffffffffffffffffffff167f78e6250172d8e0a57d8d41f480f13581571a2d27bb2a93f5f7bd2511f5c22a6c8360405161042e9190610644565b60405180910390a380341115610491573373ffffffffffffffffffffffffffffffffffffffff166108fc82346104649190610761565b9081150290604051600060405180830381858888f1935050505015801561048f573d6000803e3d6000fd5b505b5050565b600b81565b600066038d7ea4c680006003600b6104b29190610812565b6104bc9190610812565b9050806000808473ffffffffffffffffffffffffffffffffffffffff1673ffffffffffffffffffffffffffffffffffffffff168152602001908152602001600020819055505050565b6000806000808473ffffffffffffffffffffffffffffffffffffffff1673ffffffffffffffffffffffffffffffffffffffff16815260200190815260200160002054600160008573ffffffffffffffffffffffffffffffffffffffff1673ffffffffffffffffffffffffffffffffffffffff1681526020019081526020016000205491509150915091565b66038d7ea4c6800081565b600080fd5b600073ffffffffffffffffffffffffffffffffffffffff82169050919050565b60006105cb826105a0565b9050919050565b6105db816105c0565b81146105e657600080fd5b50565b6000813590506105f8816105d2565b92915050565b6000602082840312156106145761061361059b565b5b6000610622848285016105e9565b91505092915050565b6000819050919050565b61063e8161062b565b82525050565b60006020820190506106596000830184610635565b92915050565b600061066a826105a0565b9050919050565b61067a8161065f565b811461068557600080fd5b50565b60008135905061069781610671565b92915050565b6106a68161062b565b81146106b157600080fd5b50565b6000813590506106c38161069d565b92915050565b600080604083850312156106e0576106df61059b565b5b60006106ee85828601610688565b92505060206106ff858286016106b4565b9150509250929050565b600060408201905061071e6000830185610635565b61072b6020830184610635565b9392505050565b7f4e487b7100000000000000000000000000000000000000000000000000000000600052601160045260246000fd5b600061076c8261062b565b91506107778361062b565b925082820390508181111561078f5761078e610732565b5b92915050565b600082825260208201905092915050565b7f496e73756666696369656e742066756e64732073656e74000000000000000000600082015250565b60006107dc601783610795565b91506107e7826107a6565b602082019050919050565b6000602082019050818103600083015261080b816107cf565b9050919050565b600061081d8261062b565b91506108288361062b565b92508282026108368161062b565b9150828204841483151761084d5761084c610732565b5b509291505056fea26469706673582212208414c74ff04b76d1b5076f18811bcf28c58422c47596235c83da4d431a48ef8d64736f6c63430008180033",
  "linkReferences": {},
  "deployedLinkReferences": {}
}