{
  "_format": "hh-sol-artifact-1",
  "contractName": "AddService",
  "sourceName": "contracts/AddService.sol",
  "abi": [
    {
      "inputs": [
        {
          "internalType": "string",
          "name": "serviceId",
          "type": "string"
        },
        {
          "internalType": "string",
          "name": "location",
          "type": "string"
        },
        {
          "internalType": "uint256",
          "name": "cost",
          "type": "uint256"
        }
      ],
      "name": "addService",
      "outputs": [],
      "stateMutability": "nonpayable",
      "type": "function"
    },
    {
      "inputs": [
        {
          "internalType": "address",
          "name": "provider",
          "type": "address"
        }
      ],
      "name": "getProviderServices",
      "outputs": [
        {
          "internalType": "uint256[]",
          "name": "",
          "type": "uint256[]"
        }
      ],
      "stateMutability": "view",
      "type": "function"
    },
    {
      "inputs": [
        {
          "internalType": "uint256",
          "name": "index",
          "type": "uint256"
        }
      ],
      "name": "getService",
      "outputs": [
        {
          "components": [
            {
              "internalType": "address",
              "name": "provider",
              "type": "address"
            },
            {
              "internalType": "string",
              "name": "serviceId",
              "type": "string"
            },
            {
              "internalType": "string",
              "name": "location",
              "type": "string"
            },
            {
              "internalType": "uint256",
              "name": "cost",
              "type": "uint256"
            }
          ],
          "internalType": "struct AddService.Service",
          "name": "",
          "type": "tuple"
        }
      ],
      "stateMutability": "view",
      "type": "function"
    },
    {
      "inputs": [
        {
          "internalType": "address",
          "name": "provider",
          "type": "address"
        }
      ],
      "name": "getServiceCount",
      "outputs": [
        {
          "internalType": "uint256",
          "name": "",
          "type": "uint256"
        }
      ],
      "stateMutability": "view",
      "type": "function"
    },
    {
      "inputs": [
        {
          "internalType": "address",
          "name": "",
          "type": "address"
        },
        {
          "internalType": "uint256",
          "name": "",
          "type": "uint256"
        }
      ],
      "name": "providerServices",
      "outputs": [
        {
          "internalType": "uint256",
          "name": "",
          "type": "uint256"
        }
      ],
      "stateMutability": "view",
      "type": "function"
    },
    {
      "inputs": [
        {
          "internalType": "uint256",
          "name": "",
          "type": "uint256"
        }
      ],
      "name": "services",
      "outputs": [
        {
          "internalType": "address",
          "name": "provider",
          "type": "address"
        },
        {
          "internalType": "string",
          "name": "serviceId",
          "type": "string"
        },
        {
          "internalType": "string",
          "name": "location",
          "type": "string"
        },
        {
          "internalType": "uint256",
          "name": "cost",
          "type": "uint256"
        }
      ],
      "stateMutability": "view",
      "type": "function"
    }
  ],
  "bytecode": "0x608060405234801561001057600080fd5b50611191806100206000396000f3fe608060405234801561001057600080fd5b50600436106100625760003560e01c806303731b9e146100675780636e5cc01f1461009757806378f32cd7146100b35780639747ac5f146100e3578063c22c4f4314610113578063ef0e239b14610146575b600080fd5b610081600480360381019061007c9190610844565b610176565b60405161008e9190610893565b60405180910390f35b6100b160048036038101906100ac91906109f4565b6101a7565b005b6100cd60048036038101906100c89190610a7f565b610304565b6040516100da9190610893565b60405180910390f35b6100fd60048036038101906100f89190610a7f565b610350565b60405161010a9190610b6a565b60405180910390f35b61012d60048036038101906101289190610b8c565b6103e7565b60405161013d9493929190610c47565b60405180910390f35b610160600480360381019061015b9190610b8c565b610557565b60405161016d9190610d5d565b60405180910390f35b6001602052816000526040600020818154811061019257600080fd5b90600052602060002001600091509150505481565b600060405180608001604052803373ffffffffffffffffffffffffffffffffffffffff16815260200185815260200184815260200183815250908060018154018082558091505060019003906000526020600020906004020160009091909190915060008201518160000160006101000a81548173ffffffffffffffffffffffffffffffffffffffff021916908373ffffffffffffffffffffffffffffffffffffffff16021790555060208201518160010190816102659190610f8b565b50604082015181600201908161027b9190610f8b565b50606082015181600301555050600160003373ffffffffffffffffffffffffffffffffffffffff1673ffffffffffffffffffffffffffffffffffffffff16815260200190815260200160002060016000805490506102d9919061108c565b9080600181540180825580915050600190039060005260206000200160009091909190915055505050565b6000600160008373ffffffffffffffffffffffffffffffffffffffff1673ffffffffffffffffffffffffffffffffffffffff168152602001908152602001600020805490509050919050565b6060600160008373ffffffffffffffffffffffffffffffffffffffff1673ffffffffffffffffffffffffffffffffffffffff1681526020019081526020016000208054806020026020016040519081016040528092919081815260200182805480156103db57602002820191906000526020600020905b8154815260200190600101908083116103c7575b50505050509050919050565b600081815481106103f757600080fd5b90600052602060002090600402016000915090508060000160009054906101000a900473ffffffffffffffffffffffffffffffffffffffff169080600101805461044090610dae565b80601f016020809104026020016040519081016040528092919081815260200182805461046c90610dae565b80156104b95780601f1061048e576101008083540402835291602001916104b9565b820191906000526020600020905b81548152906001019060200180831161049c57829003601f168201915b5050505050908060020180546104ce90610dae565b80601f01602080910402602001604051908101604052809291908181526020018280546104fa90610dae565b80156105475780601f1061051c57610100808354040283529160200191610547565b820191906000526020600020905b81548152906001019060200180831161052a57829003601f168201915b5050505050908060030154905084565b61055f61075e565b60008054905082106105a6576040517f08c379a000000000000000000000000000000000000000000000000000000000815260040161059d9061110c565b60405180910390fd5b600082815481106105ba576105b961112c565b5b90600052602060002090600402016040518060800160405290816000820160009054906101000a900473ffffffffffffffffffffffffffffffffffffffff1673ffffffffffffffffffffffffffffffffffffffff1673ffffffffffffffffffffffffffffffffffffffff16815260200160018201805461063990610dae565b80601f016020809104026020016040519081016040528092919081815260200182805461066590610dae565b80156106b25780601f10610687576101008083540402835291602001916106b2565b820191906000526020600020905b81548152906001019060200180831161069557829003601f168201915b505050505081526020016002820180546106cb90610dae565b80601f01602080910402602001604051908101604052809291908181526020018280546106f790610dae565b80156107445780601f1061071957610100808354040283529160200191610744565b820191906000526020600020905b81548152906001019060200180831161072757829003601f168201915b505050505081526020016003820154815250509050919050565b6040518060800160405280600073ffffffffffffffffffffffffffffffffffffffff1681526020016060815260200160608152602001600081525090565b6000604051905090565b600080fd5b600080fd5b600073ffffffffffffffffffffffffffffffffffffffff82169050919050565b60006107db826107b0565b9050919050565b6107eb816107d0565b81146107f657600080fd5b50565b600081359050610808816107e2565b92915050565b6000819050919050565b6108218161080e565b811461082c57600080fd5b50565b60008135905061083e81610818565b92915050565b6000806040838503121561085b5761085a6107a6565b5b6000610869858286016107f9565b925050602061087a8582860161082f565b9150509250929050565b61088d8161080e565b82525050565b60006020820190506108a86000830184610884565b92915050565b600080fd5b600080fd5b6000601f19601f8301169050919050565b7f4e487b7100000000000000000000000000000000000000000000000000000000600052604160045260246000fd5b610901826108b8565b810181811067ffffffffffffffff821117156109205761091f6108c9565b5b80604052505050565b600061093361079c565b905061093f82826108f8565b919050565b600067ffffffffffffffff82111561095f5761095e6108c9565b5b610968826108b8565b9050602081019050919050565b82818337600083830152505050565b600061099761099284610944565b610929565b9050828152602081018484840111156109b3576109b26108b3565b5b6109be848285610975565b509392505050565b600082601f8301126109db576109da6108ae565b5b81356109eb848260208601610984565b91505092915050565b600080600060608486031215610a0d57610a0c6107a6565b5b600084013567ffffffffffffffff811115610a2b57610a2a6107ab565b5b610a37868287016109c6565b935050602084013567ffffffffffffffff811115610a5857610a576107ab565b5b610a64868287016109c6565b9250506040610a758682870161082f565b9150509250925092565b600060208284031215610a9557610a946107a6565b5b6000610aa3848285016107f9565b91505092915050565b600081519050919050565b600082825260208201905092915050565b6000819050602082019050919050565b610ae18161080e565b82525050565b6000610af38383610ad8565b60208301905092915050565b6000602082019050919050565b6000610b1782610aac565b610b218185610ab7565b9350610b2c83610ac8565b8060005b83811015610b5d578151610b448882610ae7565b9750610b4f83610aff565b925050600181019050610b30565b5085935050505092915050565b60006020820190508181036000830152610b848184610b0c565b905092915050565b600060208284031215610ba257610ba16107a6565b5b6000610bb08482850161082f565b91505092915050565b610bc2816107d0565b82525050565b600081519050919050565b600082825260208201905092915050565b60005b83811015610c02578082015181840152602081019050610be7565b60008484015250505050565b6000610c1982610bc8565b610c238185610bd3565b9350610c33818560208601610be4565b610c3c816108b8565b840191505092915050565b6000608082019050610c5c6000830187610bb9565b8181036020830152610c6e8186610c0e565b90508181036040830152610c828185610c0e565b9050610c916060830184610884565b95945050505050565b610ca3816107d0565b82525050565b600082825260208201905092915050565b6000610cc582610bc8565b610ccf8185610ca9565b9350610cdf818560208601610be4565b610ce8816108b8565b840191505092915050565b6000608083016000830151610d0b6000860182610c9a565b5060208301518482036020860152610d238282610cba565b91505060408301518482036040860152610d3d8282610cba565b9150506060830151610d526060860182610ad8565b508091505092915050565b60006020820190508181036000830152610d778184610cf3565b905092915050565b7f4e487b7100000000000000000000000000000000000000000000000000000000600052602260045260246000fd5b60006002820490506001821680610dc657607f821691505b602082108103610dd957610dd8610d7f565b5b50919050565b60008190508160005260206000209050919050565b60006020601f8301049050919050565b600082821b905092915050565b600060088302610e417fffffffffffffffffffffffffffffffffffffffffffffffffffffffffffffffff82610e04565b610e4b8683610e04565b95508019841693508086168417925050509392505050565b6000819050919050565b6000610e88610e83610e7e8461080e565b610e63565b61080e565b9050919050565b6000819050919050565b610ea283610e6d565b610eb6610eae82610e8f565b848454610e11565b825550505050565b600090565b610ecb610ebe565b610ed6818484610e99565b505050565b5b81811015610efa57610eef600082610ec3565b600181019050610edc565b5050565b601f821115610f3f57610f1081610ddf565b610f1984610df4565b81016020851015610f28578190505b610f3c610f3485610df4565b830182610edb565b50505b505050565b600082821c905092915050565b6000610f6260001984600802610f44565b1980831691505092915050565b6000610f7b8383610f51565b9150826002028217905092915050565b610f9482610bc8565b67ffffffffffffffff811115610fad57610fac6108c9565b5b610fb78254610dae565b610fc2828285610efe565b600060209050601f831160018114610ff55760008415610fe3578287015190505b610fed8582610f6f565b865550611055565b601f19841661100386610ddf565b60005b8281101561102b57848901518255600182019150602085019450602081019050611006565b868310156110485784890151611044601f891682610f51565b8355505b6001600288020188555050505b505050505050565b7f4e487b7100000000000000000000000000000000000000000000000000000000600052601160045260246000fd5b60006110978261080e565b91506110a28361080e565b92508282039050818111156110ba576110b961105d565b5b92915050565b7f5365727669636520696e646578206f7574206f662072616e6765000000000000600082015250565b60006110f6601a83610bd3565b9150611101826110c0565b602082019050919050565b60006020820190508181036000830152611125816110e9565b9050919050565b7f4e487b7100000000000000000000000000000000000000000000000000000000600052603260045260246000fdfea2646970667358221220eb540d7823796829e7819ea897e8522ceb733ae638b3efe30966c96d8fc9abe864736f6c63430008180033",
  "linkReferences": {},
  "deployedLinkReferences": {}
}