{
  "_format": "hh-sol-artifact-1",
  "contractName": "ServiceSelectionLocal",
  "sourceName": "contracts/ServiceSelectionLocal.sol",
  "abi": [
    {
      "anonymous": false,
      "inputs": [
        {
          "indexed": true,
          "internalType": "address",
          "name": "provider",
          "type": "address"
        },
        {
          "indexed": false,
          "internalType": "uint256",
          "name": "serviceId",
          "type": "uint256"
        },
        {
          "indexed": false,
          "internalType": "string",
          "name": "location",
          "type": "string"
        },
        {
          "indexed": false,
          "internalType": "uint256",
          "name": "cost",
          "type": "uint256"
        }
      ],
      "name": "ServiceAdded",
      "type": "event"
    },
    {
      "anonymous": false,
      "inputs": [
        {
          "indexed": true,
          "internalType": "address",
          "name": "consumer",
          "type": "address"
        },
        {
          "indexed": true,
          "internalType": "address",
          "name": "provider",
          "type": "address"
        },
        {
          "indexed": false,
          "internalType": "uint256",
          "name": "serviceId",
          "type": "uint256"
        }
      ],
      "name": "ServiceSelected",
      "type": "event"
    },
    {
      "inputs": [
        {
          "internalType": "uint256",
          "name": "serviceId",
          "type": "uint256"
        },
        {
          "internalType": "string",
          "name": "location",
          "type": "string"
        },
        {
          "internalType": "uint256",
          "name": "cost",
          "type": "uint256"
        }
      ],
      "name": "addService",
      "outputs": [],
      "stateMutability": "nonpayable",
      "type": "function"
    },
    {
      "inputs": [
        {
          "internalType": "address",
          "name": "provider",
          "type": "address"
        }
      ],
      "name": "getProviderServices",
      "outputs": [
        {
          "components": [
            {
              "internalType": "uint256",
              "name": "serviceId",
              "type": "uint256"
            },
            {
              "internalType": "string",
              "name": "location",
              "type": "string"
            },
            {
              "internalType": "uint256",
              "name": "cost",
              "type": "uint256"
            }
          ],
          "internalType": "struct ServiceSelectionLocal.Service[]",
          "name": "",
          "type": "tuple[]"
        }
      ],
      "stateMutability": "view",
      "type": "function"
    },
    {
      "inputs": [],
      "name": "getProviders",
      "outputs": [
        {
          "components": [
            {
              "internalType": "address",
              "name": "providerAddress",
              "type": "address"
            },
            {
              "components": [
                {
                  "internalType": "uint256",
                  "name": "serviceId",
                  "type": "uint256"
                },
                {
                  "internalType": "string",
                  "name": "location",
                  "type": "string"
                },
                {
                  "internalType": "uint256",
                  "name": "cost",
                  "type": "uint256"
                }
              ],
              "internalType": "struct ServiceSelectionLocal.Service[]",
              "name": "services",
              "type": "tuple[]"
            }
          ],
          "internalType": "struct ServiceSelectionLocal.Provider[]",
          "name": "",
          "type": "tuple[]"
        }
      ],
      "stateMutability": "view",
      "type": "function"
    },
    {
      "inputs": [],
      "name": "getSelections",
      "outputs": [
        {
          "components": [
            {
              "internalType": "address",
              "name": "consumer",
              "type": "address"
            },
            {
              "internalType": "address",
              "name": "provider",
              "type": "address"
            },
            {
              "internalType": "uint256",
              "name": "serviceId",
              "type": "uint256"
            }
          ],
          "internalType": "struct ServiceSelectionLocal.Selection[]",
          "name": "",
          "type": "tuple[]"
        }
      ],
      "stateMutability": "view",
      "type": "function"
    },
    {
      "inputs": [
        {
          "internalType": "address",
          "name": "",
          "type": "address"
        }
      ],
      "name": "providerIndex",
      "outputs": [
        {
          "internalType": "uint256",
          "name": "",
          "type": "uint256"
        }
      ],
      "stateMutability": "view",
      "type": "function"
    },
    {
      "inputs": [
        {
          "internalType": "uint256",
          "name": "",
          "type": "uint256"
        }
      ],
      "name": "providers",
      "outputs": [
        {
          "internalType": "address",
          "name": "providerAddress",
          "type": "address"
        }
      ],
      "stateMutability": "view",
      "type": "function"
    },
    {
      "inputs": [
        {
          "internalType": "address",
          "name": "provider",
          "type": "address"
        },
        {
          "internalType": "uint256",
          "name": "serviceId",
          "type": "uint256"
        }
      ],
      "name": "selectService",
      "outputs": [],
      "stateMutability": "nonpayable",
      "type": "function"
    },
    {
      "inputs": [
        {
          "internalType": "uint256",
          "name": "",
          "type": "uint256"
        }
      ],
      "name": "selections",
      "outputs": [
        {
          "internalType": "address",
          "name": "consumer",
          "type": "address"
        },
        {
          "internalType": "address",
          "name": "provider",
          "type": "address"
        },
        {
          "internalType": "uint256",
          "name": "serviceId",
          "type": "uint256"
        }
      ],
      "stateMutability": "view",
      "type": "function"
    }
  ],
  "bytecode": "0x608060405234801561001057600080fd5b50611a1b806100206000396000f3fe608060405234801561001057600080fd5b50600436106100885760003560e01c80637cb84de81161005b5780637cb84de81461013d5780639747ac5f14610159578063be57bc9214610189578063edc922a9146101a557610088565b8063143e058d1461008d57806332d6aaa0146100bd57806350f3fc81146100ef578063560f77851461011f575b600080fd5b6100a760048036038101906100a29190610d7a565b6101c3565b6040516100b49190610dc0565b60405180910390f35b6100d760048036038101906100d29190610e07565b6101db565b6040516100e693929190610e43565b60405180910390f35b61010960048036038101906101049190610e07565b610255565b6040516101169190610e7a565b60405180910390f35b6101276102a3565b6040516101349190610fa4565b60405180910390f35b61015760048036038101906101529190610fc6565b6103b8565b005b610173600480360381019061016e9190610d7a565b610770565b60405161018091906111a8565b60405180910390f35b6101a3600480360381019061019e91906112ff565b61092e565b005b6101ad610b4e565b6040516101ba91906114f3565b60405180910390f35b60016020528060005260406000206000915090505481565b600281815481106101eb57600080fd5b90600052602060002090600302016000915090508060000160009054906101000a900473ffffffffffffffffffffffffffffffffffffffff16908060010160009054906101000a900473ffffffffffffffffffffffffffffffffffffffff16908060020154905083565b6000818154811061026557600080fd5b90600052602060002090600202016000915090508060000160009054906101000a900473ffffffffffffffffffffffffffffffffffffffff16905081565b60606002805480602002602001604051908101604052809291908181526020016000905b828210156103af57838290600052602060002090600302016040518060600160405290816000820160009054906101000a900473ffffffffffffffffffffffffffffffffffffffff1673ffffffffffffffffffffffffffffffffffffffff1673ffffffffffffffffffffffffffffffffffffffff1681526020016001820160009054906101000a900473ffffffffffffffffffffffffffffffffffffffff1673ffffffffffffffffffffffffffffffffffffffff1673ffffffffffffffffffffffffffffffffffffffff168152602001600282015481525050815260200190600101906102c7565b50505050905090565b6000600160008473ffffffffffffffffffffffffffffffffffffffff1673ffffffffffffffffffffffffffffffffffffffff1681526020019081526020016000205490506000811161043f576040517f08c379a000000000000000000000000000000000000000000000000000000000815260040161043690611572565b60405180910390fd5b60008060018361044f91906115c1565b815481106104605761045f6115f5565b5b9060005260206000209060020201600101805480602002602001604051908101604052809291908181526020016000905b828210156105695783829060005260206000209060030201604051806060016040529081600082015481526020016001820180546104ce90611653565b80601f01602080910402602001604051908101604052809291908181526020018280546104fa90611653565b80156105475780601f1061051c57610100808354040283529160200191610547565b820191906000526020600020905b81548152906001019060200180831161052a57829003601f168201915b5050505050815260200160028201548152505081526020019060010190610491565b5050505090506000805b82518110156105b757848382815181106105905761058f6115f5565b5b602002602001015160000151036105aa57600191506105b7565b8080600101915050610573565b50806105f8576040517f08c379a00000000000000000000000000000000000000000000000000000000081526004016105ef906116d0565b60405180910390fd5b600260405180606001604052803373ffffffffffffffffffffffffffffffffffffffff1681526020018773ffffffffffffffffffffffffffffffffffffffff16815260200186815250908060018154018082558091505060019003906000526020600020906003020160009091909190915060008201518160000160006101000a81548173ffffffffffffffffffffffffffffffffffffffff021916908373ffffffffffffffffffffffffffffffffffffffff16021790555060208201518160010160006101000a81548173ffffffffffffffffffffffffffffffffffffffff021916908373ffffffffffffffffffffffffffffffffffffffff1602179055506040820151816002015550508473ffffffffffffffffffffffffffffffffffffffff163373ffffffffffffffffffffffffffffffffffffffff167f1f789990a3f32a3a04783563d2d518931a9c217f967dc213880ba941ffe032b6866040516107619190610dc0565b60405180910390a35050505050565b60606000600160008473ffffffffffffffffffffffffffffffffffffffff1673ffffffffffffffffffffffffffffffffffffffff168152602001908152602001600020549050600081116107f9576040517f08c379a00000000000000000000000000000000000000000000000000000000081526004016107f090611572565b60405180910390fd5b600060018261080891906115c1565b81548110610819576108186115f5565b5b9060005260206000209060020201600101805480602002602001604051908101604052809291908181526020016000905b8282101561092257838290600052602060002090600302016040518060600160405290816000820154815260200160018201805461088790611653565b80601f01602080910402602001604051908101604052809291908181526020018280546108b390611653565b80156109005780601f106108d557610100808354040283529160200191610900565b820191906000526020600020905b8154815290600101906020018083116108e357829003601f168201915b505050505081526020016002820154815250508152602001906001019061084a565b50505050915050919050565b6000600160003373ffffffffffffffffffffffffffffffffffffffff1673ffffffffffffffffffffffffffffffffffffffff16815260200190815260200160002054905060008103610a555760006001816001815401808255809150500390600052602060002090505060008054905090503360006001836109b091906115c1565b815481106109c1576109c06115f5565b5b906000526020600020906002020160000160006101000a81548173ffffffffffffffffffffffffffffffffffffffff021916908373ffffffffffffffffffffffffffffffffffffffff16021790555080600160003373ffffffffffffffffffffffffffffffffffffffff1673ffffffffffffffffffffffffffffffffffffffff168152602001908152602001600020819055505b6000600182610a6491906115c1565b81548110610a7557610a746115f5565b5b90600052602060002090600202016001016040518060600160405280868152602001858152602001848152509080600181540180825580915050600190039060005260206000209060030201600090919091909150600082015181600001556020820151816001019081610ae9919061189c565b506040820151816002015550503373ffffffffffffffffffffffffffffffffffffffff167f07bc97f90e154f6cd920892e453e11da3e758071a93fba329b6bbb3d6409a77c858585604051610b40939291906119a7565b60405180910390a250505050565b60606000805480602002602001604051908101604052809291908181526020016000905b82821015610cff57838290600052602060002090600202016040518060400160405290816000820160009054906101000a900473ffffffffffffffffffffffffffffffffffffffff1673ffffffffffffffffffffffffffffffffffffffff1673ffffffffffffffffffffffffffffffffffffffff16815260200160018201805480602002602001604051908101604052809291908181526020016000905b82821015610ce8578382906000526020600020906003020160405180606001604052908160008201548152602001600182018054610c4d90611653565b80601f0160208091040260200160405190810160405280929190818152602001828054610c7990611653565b8015610cc65780601f10610c9b57610100808354040283529160200191610cc6565b820191906000526020600020905b815481529060010190602001808311610ca957829003601f168201915b5050505050815260200160028201548152505081526020019060010190610c10565b505050508152505081526020019060010190610b72565b50505050905090565b6000604051905090565b600080fd5b600080fd5b600073ffffffffffffffffffffffffffffffffffffffff82169050919050565b6000610d4782610d1c565b9050919050565b610d5781610d3c565b8114610d6257600080fd5b50565b600081359050610d7481610d4e565b92915050565b600060208284031215610d9057610d8f610d12565b5b6000610d9e84828501610d65565b91505092915050565b6000819050919050565b610dba81610da7565b82525050565b6000602082019050610dd56000830184610db1565b92915050565b610de481610da7565b8114610def57600080fd5b50565b600081359050610e0181610ddb565b92915050565b600060208284031215610e1d57610e1c610d12565b5b6000610e2b84828501610df2565b91505092915050565b610e3d81610d3c565b82525050565b6000606082019050610e586000830186610e34565b610e656020830185610e34565b610e726040830184610db1565b949350505050565b6000602082019050610e8f6000830184610e34565b92915050565b600081519050919050565b600082825260208201905092915050565b6000819050602082019050919050565b610eca81610d3c565b82525050565b610ed981610da7565b82525050565b606082016000820151610ef56000850182610ec1565b506020820151610f086020850182610ec1565b506040820151610f1b6040850182610ed0565b50505050565b6000610f2d8383610edf565b60608301905092915050565b6000602082019050919050565b6000610f5182610e95565b610f5b8185610ea0565b9350610f6683610eb1565b8060005b83811015610f97578151610f7e8882610f21565b9750610f8983610f39565b925050600181019050610f6a565b5085935050505092915050565b60006020820190508181036000830152610fbe8184610f46565b905092915050565b60008060408385031215610fdd57610fdc610d12565b5b6000610feb85828601610d65565b9250506020610ffc85828601610df2565b9150509250929050565b600081519050919050565b600082825260208201905092915050565b6000819050602082019050919050565b600081519050919050565b600082825260208201905092915050565b60005b8381101561106c578082015181840152602081019050611051565b60008484015250505050565b6000601f19601f8301169050919050565b600061109482611032565b61109e818561103d565b93506110ae81856020860161104e565b6110b781611078565b840191505092915050565b60006060830160008301516110da6000860182610ed0565b50602083015184820360208601526110f28282611089565b91505060408301516111076040860182610ed0565b508091505092915050565b600061111e83836110c2565b905092915050565b6000602082019050919050565b600061113e82611006565b6111488185611011565b93508360208202850161115a85611022565b8060005b8581101561119657848403895281516111778582611112565b945061118283611126565b925060208a0199505060018101905061115e565b50829750879550505050505092915050565b600060208201905081810360008301526111c28184611133565b905092915050565b600080fd5b600080fd5b7f4e487b7100000000000000000000000000000000000000000000000000000000600052604160045260246000fd5b61120c82611078565b810181811067ffffffffffffffff8211171561122b5761122a6111d4565b5b80604052505050565b600061123e610d08565b905061124a8282611203565b919050565b600067ffffffffffffffff82111561126a576112696111d4565b5b61127382611078565b9050602081019050919050565b82818337600083830152505050565b60006112a261129d8461124f565b611234565b9050828152602081018484840111156112be576112bd6111cf565b5b6112c9848285611280565b509392505050565b600082601f8301126112e6576112e56111ca565b5b81356112f684826020860161128f565b91505092915050565b60008060006060848603121561131857611317610d12565b5b600061132686828701610df2565b935050602084013567ffffffffffffffff81111561134757611346610d17565b5b611353868287016112d1565b925050604061136486828701610df2565b9150509250925092565b600081519050919050565b600082825260208201905092915050565b6000819050602082019050919050565b600082825260208201905092915050565b60006113b682611006565b6113c0818561139a565b9350836020820285016113d285611022565b8060005b8581101561140e57848403895281516113ef8582611112565b94506113fa83611126565b925060208a019950506001810190506113d6565b50829750879550505050505092915050565b60006040830160008301516114386000860182610ec1565b506020830151848203602086015261145082826113ab565b9150508091505092915050565b60006114698383611420565b905092915050565b6000602082019050919050565b60006114898261136e565b6114938185611379565b9350836020820285016114a58561138a565b8060005b858110156114e157848403895281516114c2858261145d565b94506114cd83611471565b925060208a019950506001810190506114a9565b50829750879550505050505092915050565b6000602082019050818103600083015261150d818461147e565b905092915050565b600082825260208201905092915050565b7f50726f7669646572206e6f7420666f756e640000000000000000000000000000600082015250565b600061155c601283611515565b915061156782611526565b602082019050919050565b6000602082019050818103600083015261158b8161154f565b9050919050565b7f4e487b7100000000000000000000000000000000000000000000000000000000600052601160045260246000fd5b60006115cc82610da7565b91506115d783610da7565b92508282039050818111156115ef576115ee611592565b5b92915050565b7f4e487b7100000000000000000000000000000000000000000000000000000000600052603260045260246000fd5b7f4e487b7100000000000000000000000000000000000000000000000000000000600052602260045260246000fd5b6000600282049050600182168061166b57607f821691505b60208210810361167e5761167d611624565b5b50919050565b7f53657276696365206e6f7420666f756e64000000000000000000000000000000600082015250565b60006116ba601183611515565b91506116c582611684565b602082019050919050565b600060208201905081810360008301526116e9816116ad565b9050919050565b60008190508160005260206000209050919050565b60006020601f8301049050919050565b600082821b905092915050565b6000600883026117527fffffffffffffffffffffffffffffffffffffffffffffffffffffffffffffffff82611715565b61175c8683611715565b95508019841693508086168417925050509392505050565b6000819050919050565b600061179961179461178f84610da7565b611774565b610da7565b9050919050565b6000819050919050565b6117b38361177e565b6117c76117bf826117a0565b848454611722565b825550505050565b600090565b6117dc6117cf565b6117e78184846117aa565b505050565b5b8181101561180b576118006000826117d4565b6001810190506117ed565b5050565b601f82111561185057611821816116f0565b61182a84611705565b81016020851015611839578190505b61184d61184585611705565b8301826117ec565b50505b505050565b600082821c905092915050565b600061187360001984600802611855565b1980831691505092915050565b600061188c8383611862565b9150826002028217905092915050565b6118a582611032565b67ffffffffffffffff8111156118be576118bd6111d4565b5b6118c88254611653565b6118d382828561180f565b600060209050601f83116001811461190657600084156118f4578287015190505b6118fe8582611880565b865550611966565b601f198416611914866116f0565b60005b8281101561193c57848901518255600182019150602085019450602081019050611917565b868310156119595784890151611955601f891682611862565b8355505b6001600288020188555050505b505050505050565b600061197982611032565b6119838185611515565b935061199381856020860161104e565b61199c81611078565b840191505092915050565b60006060820190506119bc6000830186610db1565b81810360208301526119ce818561196e565b90506119dd6040830184610db1565b94935050505056fea2646970667358221220a42609945a96bd7def530a999906aae06bce88ab16e034cb20cfcf621d04362764736f6c63430008180033",
  "linkReferences": {},
  "deployedLinkReferences": {}
}