{
  "_format": "hh-sol-artifact-1",
  "contractName": "ServiceSelectionSepolia",
  "sourceName": "contracts/ServiceSelectionSepolia.sol",
  "abi": [
    {
      "anonymous": false,
      "inputs": [
        {
          "indexed": true,
          "internalType": "address",
          "name": "provider",
          "type": "address"
        },
        {
          "indexed": false,
          "internalType": "uint256",
          "name": "serviceId",
          "type": "uint256"
        },
        {
          "indexed": false,
          "internalType": "string",
          "name": "location",
          "type": "string"
        },
        {
          "indexed": false,
          "internalType": "uint256",
          "name": "cost",
          "type": "uint256"
        }
      ],
      "name": "ServiceAdded",
      "type": "event"
    },
    {
      "anonymous": false,
      "inputs": [
        {
          "indexed": true,
          "internalType": "address",
          "name": "consumer",
          "type": "address"
        },
        {
          "indexed": true,
          "internalType": "address",
          "name": "provider",
          "type": "address"
        },
        {
          "indexed": false,
          "internalType": "uint256",
          "name": "serviceId",
          "type": "uint256"
        }
      ],
      "name": "ServiceSelected",
      "type": "event"
    },
    {
      "inputs": [
        {
          "internalType": "uint256",
          "name": "serviceId",
          "type": "uint256"
        },
        {
          "internalType": "string",
          "name": "location",
          "type": "string"
        },
        {
          "internalType": "uint256",
          "name": "cost",
          "type": "uint256"
        }
      ],
      "name": "addService",
      "outputs": [],
      "stateMutability": "nonpayable",
      "type": "function"
    },
    {
      "inputs": [
        {
          "internalType": "address",
          "name": "provider",
          "type": "address"
        }
      ],
      "name": "getProviderServices",
      "outputs": [
        {
          "components": [
            {
              "internalType": "uint256",
              "name": "serviceId",
              "type": "uint256"
            },
            {
              "internalType": "string",
              "name": "location",
              "type": "string"
            },
            {
              "internalType": "uint256",
              "name": "cost",
              "type": "uint256"
            }
          ],
          "internalType": "struct ServiceSelectionSepolia.Service[]",
          "name": "",
          "type": "tuple[]"
        }
      ],
      "stateMutability": "view",
      "type": "function"
    },
    {
      "inputs": [],
      "name": "getProviders",
      "outputs": [
        {
          "internalType": "address[]",
          "name": "",
          "type": "address[]"
        }
      ],
      "stateMutability": "view",
      "type": "function"
    },
    {
      "inputs": [],
      "name": "getSelections",
      "outputs": [
        {
          "components": [
            {
              "internalType": "address",
              "name": "consumer",
              "type": "address"
            },
            {
              "internalType": "address",
              "name": "provider",
              "type": "address"
            },
            {
              "internalType": "uint256",
              "name": "serviceId",
              "type": "uint256"
            }
          ],
          "internalType": "struct ServiceSelectionSepolia.Selection[]",
          "name": "",
          "type": "tuple[]"
        }
      ],
      "stateMutability": "view",
      "type": "function"
    },
    {
      "inputs": [
        {
          "internalType": "uint256",
          "name": "",
          "type": "uint256"
        }
      ],
      "name": "providerAddresses",
      "outputs": [
        {
          "internalType": "address",
          "name": "",
          "type": "address"
        }
      ],
      "stateMutability": "view",
      "type": "function"
    },
    {
      "inputs": [
        {
          "internalType": "address",
          "name": "",
          "type": "address"
        }
      ],
      "name": "providers",
      "outputs": [
        {
          "internalType": "address",
          "name": "providerAddress",
          "type": "address"
        }
      ],
      "stateMutability": "view",
      "type": "function"
    },
    {
      "inputs": [
        {
          "internalType": "address",
          "name": "provider",
          "type": "address"
        },
        {
          "internalType": "uint256",
          "name": "serviceId",
          "type": "uint256"
        }
      ],
      "name": "selectService",
      "outputs": [],
      "stateMutability": "nonpayable",
      "type": "function"
    },
    {
      "inputs": [
        {
          "internalType": "uint256",
          "name": "",
          "type": "uint256"
        }
      ],
      "name": "selections",
      "outputs": [
        {
          "internalType": "address",
          "name": "consumer",
          "type": "address"
        },
        {
          "internalType": "address",
          "name": "provider",
          "type": "address"
        },
        {
          "internalType": "uint256",
          "name": "serviceId",
          "type": "uint256"
        }
      ],
      "stateMutability": "view",
      "type": "function"
    }
  ],
  "bytecode": "0x608060405234801561001057600080fd5b50611789806100206000396000f3fe608060405234801561001057600080fd5b50600436106100885760003560e01c80637cb84de81161005b5780637cb84de81461013d5780639747ac5f14610159578063be57bc9214610189578063edc922a9146101a557610088565b80630787bc271461008d57806332d6aaa0146100bd578063560f7785146100ef578063618dd9a81461010d575b600080fd5b6100a760048036038101906100a29190610c21565b6101c3565b6040516100b49190610c5d565b60405180910390f35b6100d760048036038101906100d29190610cae565b610201565b6040516100e693929190610cea565b60405180910390f35b6100f761027b565b6040516101049190610e30565b60405180910390f35b61012760048036038101906101229190610cae565b610390565b6040516101349190610c5d565b60405180910390f35b61015760048036038101906101529190610e52565b6103cf565b005b610173600480360381019061016e9190610c21565b61067b565b6040516101809190611034565b60405180910390f35b6101a3600480360381019061019e919061118b565b6108df565b005b6101ad610b00565b6040516101ba91906112a9565b60405180910390f35b60006020528060005260406000206000915090508060000160009054906101000a900473ffffffffffffffffffffffffffffffffffffffff16905081565b6002818154811061021157600080fd5b90600052602060002090600302016000915090508060000160009054906101000a900473ffffffffffffffffffffffffffffffffffffffff16908060010160009054906101000a900473ffffffffffffffffffffffffffffffffffffffff16908060020154905083565b60606002805480602002602001604051908101604052809291908181526020016000905b8282101561038757838290600052602060002090600302016040518060600160405290816000820160009054906101000a900473ffffffffffffffffffffffffffffffffffffffff1673ffffffffffffffffffffffffffffffffffffffff1673ffffffffffffffffffffffffffffffffffffffff1681526020016001820160009054906101000a900473ffffffffffffffffffffffffffffffffffffffff1673ffffffffffffffffffffffffffffffffffffffff1673ffffffffffffffffffffffffffffffffffffffff1681526020016002820154815250508152602001906001019061029f565b50505050905090565b600181815481106103a057600080fd5b906000526020600020016000915054906101000a900473ffffffffffffffffffffffffffffffffffffffff1681565b60008060008473ffffffffffffffffffffffffffffffffffffffff1673ffffffffffffffffffffffffffffffffffffffff1681526020019081526020016000209050600073ffffffffffffffffffffffffffffffffffffffff168160000160009054906101000a900473ffffffffffffffffffffffffffffffffffffffff1673ffffffffffffffffffffffffffffffffffffffff16036104a4576040517f08c379a000000000000000000000000000000000000000000000000000000000815260040161049b90611328565b60405180910390fd5b600081600101600084815260200190815260200160002090506000816000015403610504576040517f08c379a00000000000000000000000000000000000000000000000000000000081526004016104fb90611394565b60405180910390fd5b600260405180606001604052803373ffffffffffffffffffffffffffffffffffffffff1681526020018673ffffffffffffffffffffffffffffffffffffffff16815260200185815250908060018154018082558091505060019003906000526020600020906003020160009091909190915060008201518160000160006101000a81548173ffffffffffffffffffffffffffffffffffffffff021916908373ffffffffffffffffffffffffffffffffffffffff16021790555060208201518160010160006101000a81548173ffffffffffffffffffffffffffffffffffffffff021916908373ffffffffffffffffffffffffffffffffffffffff1602179055506040820151816002015550508373ffffffffffffffffffffffffffffffffffffffff163373ffffffffffffffffffffffffffffffffffffffff167f1f789990a3f32a3a04783563d2d518931a9c217f967dc213880ba941ffe032b68560405161066d91906113b4565b60405180910390a350505050565b606060008060008473ffffffffffffffffffffffffffffffffffffffff1673ffffffffffffffffffffffffffffffffffffffff1681526020019081526020016000209050600073ffffffffffffffffffffffffffffffffffffffff168160000160009054906101000a900473ffffffffffffffffffffffffffffffffffffffff1673ffffffffffffffffffffffffffffffffffffffff1603610752576040517f08c379a000000000000000000000000000000000000000000000000000000000815260040161074990611328565b60405180910390fd5b6000816002018054905067ffffffffffffffff81111561077557610774611060565b5b6040519080825280602002602001820160405280156107ae57816020015b61079b610b8e565b8152602001906001900390816107935790505b50905060005b82600201805490508110156108d4578260010160008460020183815481106107df576107de6113cf565b5b906000526020600020015481526020019081526020016000206040518060600160405290816000820154815260200160018201805461081d9061142d565b80601f01602080910402602001604051908101604052809291908181526020018280546108499061142d565b80156108965780601f1061086b57610100808354040283529160200191610896565b820191906000526020600020905b81548152906001019060200180831161087957829003601f168201915b505050505081526020016002820154815250508282815181106108bc576108bb6113cf565b5b602002602001018190525080806001019150506107b4565b508092505050919050565b60008060003373ffffffffffffffffffffffffffffffffffffffff1673ffffffffffffffffffffffffffffffffffffffff1681526020019081526020016000209050600073ffffffffffffffffffffffffffffffffffffffff168160000160009054906101000a900473ffffffffffffffffffffffffffffffffffffffff1673ffffffffffffffffffffffffffffffffffffffff1603610a2057338160000160006101000a81548173ffffffffffffffffffffffffffffffffffffffff021916908373ffffffffffffffffffffffffffffffffffffffff1602179055506001339080600181540180825580915050600190039060005260206000200160009091909190916101000a81548173ffffffffffffffffffffffffffffffffffffffff021916908373ffffffffffffffffffffffffffffffffffffffff1602179055505b604051806060016040528085815260200184815260200183815250816001016000868152602001908152602001600020600082015181600001556020820151816001019081610a6f919061160a565b5060408201518160020155905050806002018490806001815401808255809150506001900390600052602060002001600090919091909150553373ffffffffffffffffffffffffffffffffffffffff167f07bc97f90e154f6cd920892e453e11da3e758071a93fba329b6bbb3d6409a77c858585604051610af293929190611715565b60405180910390a250505050565b60606001805480602002602001604051908101604052809291908181526020018280548015610b8457602002820191906000526020600020905b8160009054906101000a900473ffffffffffffffffffffffffffffffffffffffff1673ffffffffffffffffffffffffffffffffffffffff1681526020019060010190808311610b3a575b5050505050905090565b60405180606001604052806000815260200160608152602001600081525090565b6000604051905090565b600080fd5b600080fd5b600073ffffffffffffffffffffffffffffffffffffffff82169050919050565b6000610bee82610bc3565b9050919050565b610bfe81610be3565b8114610c0957600080fd5b50565b600081359050610c1b81610bf5565b92915050565b600060208284031215610c3757610c36610bb9565b5b6000610c4584828501610c0c565b91505092915050565b610c5781610be3565b82525050565b6000602082019050610c726000830184610c4e565b92915050565b6000819050919050565b610c8b81610c78565b8114610c9657600080fd5b50565b600081359050610ca881610c82565b92915050565b600060208284031215610cc457610cc3610bb9565b5b6000610cd284828501610c99565b91505092915050565b610ce481610c78565b82525050565b6000606082019050610cff6000830186610c4e565b610d0c6020830185610c4e565b610d196040830184610cdb565b949350505050565b600081519050919050565b600082825260208201905092915050565b6000819050602082019050919050565b610d5681610be3565b82525050565b610d6581610c78565b82525050565b606082016000820151610d816000850182610d4d565b506020820151610d946020850182610d4d565b506040820151610da76040850182610d5c565b50505050565b6000610db98383610d6b565b60608301905092915050565b6000602082019050919050565b6000610ddd82610d21565b610de78185610d2c565b9350610df283610d3d565b8060005b83811015610e23578151610e0a8882610dad565b9750610e1583610dc5565b925050600181019050610df6565b5085935050505092915050565b60006020820190508181036000830152610e4a8184610dd2565b905092915050565b60008060408385031215610e6957610e68610bb9565b5b6000610e7785828601610c0c565b9250506020610e8885828601610c99565b9150509250929050565b600081519050919050565b600082825260208201905092915050565b6000819050602082019050919050565b600081519050919050565b600082825260208201905092915050565b60005b83811015610ef8578082015181840152602081019050610edd565b60008484015250505050565b6000601f19601f8301169050919050565b6000610f2082610ebe565b610f2a8185610ec9565b9350610f3a818560208601610eda565b610f4381610f04565b840191505092915050565b6000606083016000830151610f666000860182610d5c565b5060208301518482036020860152610f7e8282610f15565b9150506040830151610f936040860182610d5c565b508091505092915050565b6000610faa8383610f4e565b905092915050565b6000602082019050919050565b6000610fca82610e92565b610fd48185610e9d565b935083602082028501610fe685610eae565b8060005b8581101561102257848403895281516110038582610f9e565b945061100e83610fb2565b925060208a01995050600181019050610fea565b50829750879550505050505092915050565b6000602082019050818103600083015261104e8184610fbf565b905092915050565b600080fd5b600080fd5b7f4e487b7100000000000000000000000000000000000000000000000000000000600052604160045260246000fd5b61109882610f04565b810181811067ffffffffffffffff821117156110b7576110b6611060565b5b80604052505050565b60006110ca610baf565b90506110d6828261108f565b919050565b600067ffffffffffffffff8211156110f6576110f5611060565b5b6110ff82610f04565b9050602081019050919050565b82818337600083830152505050565b600061112e611129846110db565b6110c0565b90508281526020810184848401111561114a5761114961105b565b5b61115584828561110c565b509392505050565b600082601f83011261117257611171611056565b5b813561118284826020860161111b565b91505092915050565b6000806000606084860312156111a4576111a3610bb9565b5b60006111b286828701610c99565b935050602084013567ffffffffffffffff8111156111d3576111d2610bbe565b5b6111df8682870161115d565b92505060406111f086828701610c99565b9150509250925092565b600081519050919050565b600082825260208201905092915050565b6000819050602082019050919050565b60006112328383610d4d565b60208301905092915050565b6000602082019050919050565b6000611256826111fa565b6112608185611205565b935061126b83611216565b8060005b8381101561129c5781516112838882611226565b975061128e8361123e565b92505060018101905061126f565b5085935050505092915050565b600060208201905081810360008301526112c3818461124b565b905092915050565b600082825260208201905092915050565b7f50726f7669646572206e6f7420666f756e640000000000000000000000000000600082015250565b60006113126012836112cb565b915061131d826112dc565b602082019050919050565b6000602082019050818103600083015261134181611305565b9050919050565b7f53657276696365206e6f7420666f756e64000000000000000000000000000000600082015250565b600061137e6011836112cb565b915061138982611348565b602082019050919050565b600060208201905081810360008301526113ad81611371565b9050919050565b60006020820190506113c96000830184610cdb565b92915050565b7f4e487b7100000000000000000000000000000000000000000000000000000000600052603260045260246000fd5b7f4e487b7100000000000000000000000000000000000000000000000000000000600052602260045260246000fd5b6000600282049050600182168061144557607f821691505b602082108103611458576114576113fe565b5b50919050565b60008190508160005260206000209050919050565b60006020601f8301049050919050565b600082821b905092915050565b6000600883026114c07fffffffffffffffffffffffffffffffffffffffffffffffffffffffffffffffff82611483565b6114ca8683611483565b95508019841693508086168417925050509392505050565b6000819050919050565b60006115076115026114fd84610c78565b6114e2565b610c78565b9050919050565b6000819050919050565b611521836114ec565b61153561152d8261150e565b848454611490565b825550505050565b600090565b61154a61153d565b611555818484611518565b505050565b5b818110156115795761156e600082611542565b60018101905061155b565b5050565b601f8211156115be5761158f8161145e565b61159884611473565b810160208510156115a7578190505b6115bb6115b385611473565b83018261155a565b50505b505050565b600082821c905092915050565b60006115e1600019846008026115c3565b1980831691505092915050565b60006115fa83836115d0565b9150826002028217905092915050565b61161382610ebe565b67ffffffffffffffff81111561162c5761162b611060565b5b611636825461142d565b61164182828561157d565b600060209050601f8311600181146116745760008415611662578287015190505b61166c85826115ee565b8655506116d4565b601f1984166116828661145e565b60005b828110156116aa57848901518255600182019150602085019450602081019050611685565b868310156116c757848901516116c3601f8916826115d0565b8355505b6001600288020188555050505b505050505050565b60006116e782610ebe565b6116f181856112cb565b9350611701818560208601610eda565b61170a81610f04565b840191505092915050565b600060608201905061172a6000830186610cdb565b818103602083015261173c81856116dc565b905061174b6040830184610cdb565b94935050505056fea2646970667358221220fb74c9cff6d0f6b139b9e1d59699ac82f2cafdf9ce537352f78d0f835557e86764736f6c63430008180033",
  "linkReferences": {},
  "deployedLinkReferences": {}
}